{
  "_format": "hh-sol-artifact-1",
  "contractName": "Oracle",
  "sourceName": "contracts/Oracle.sol",
  "abi": [
    {
      "inputs": [
        {
          "internalType": "uint256",
          "name": "ethPriceInCents",
          "type": "uint256"
        }
      ],
      "stateMutability": "nonpayable",
      "type": "constructor"
    },
    {
      "inputs": [
        {
          "internalType": "address",
          "name": "owner",
          "type": "address"
        }
      ],
      "name": "OwnableInvalidOwner",
      "type": "error"
    },
    {
      "inputs": [
        {
          "internalType": "address",
          "name": "account",
          "type": "address"
        }
      ],
      "name": "OwnableUnauthorizedAccount",
      "type": "error"
    },
    {
      "anonymous": false,
      "inputs": [
        {
          "indexed": false,
          "internalType": "address[]",
          "name": "subscribers",
          "type": "address[]"
        }
      ],
      "name": "AllUpdated",
      "type": "event"
    },
    {
      "anonymous": false,
      "inputs": [
        {
          "indexed": true,
          "internalType": "address",
          "name": "previousOwner",
          "type": "address"
        },
        {
          "indexed": true,
          "internalType": "address",
          "name": "newOwner",
          "type": "address"
        }
      ],
      "name": "OwnershipTransferred",
      "type": "event"
    },
    {
      "anonymous": false,
      "inputs": [
        {
          "indexed": true,
          "internalType": "address",
          "name": "subscriber",
          "type": "address"
        }
      ],
      "name": "Subscribed",
      "type": "event"
    },
    {
      "anonymous": false,
      "inputs": [
        {
          "indexed": true,
          "internalType": "address",
          "name": "subscriber",
          "type": "address"
        }
      ],
      "name": "Unsubscribed",
      "type": "event"
    },
    {
      "inputs": [],
      "name": "ETH_IN_WEI",
      "outputs": [
        {
          "internalType": "uint256",
          "name": "",
          "type": "uint256"
        }
      ],
      "stateMutability": "view",
      "type": "function"
    },
    {
      "inputs": [],
      "name": "getWeiRatio",
      "outputs": [
        {
          "internalType": "uint256",
          "name": "",
          "type": "uint256"
        }
      ],
      "stateMutability": "view",
      "type": "function"
    },
    {
      "inputs": [],
      "name": "owner",
      "outputs": [
        {
          "internalType": "address",
          "name": "",
          "type": "address"
        }
      ],
      "stateMutability": "view",
      "type": "function"
    },
    {
      "inputs": [
        {
          "internalType": "address",
          "name": "subscriber",
          "type": "address"
        }
      ],
      "name": "register",
      "outputs": [],
      "stateMutability": "nonpayable",
      "type": "function"
    },
    {
      "inputs": [],
      "name": "renounceOwnership",
      "outputs": [],
      "stateMutability": "nonpayable",
      "type": "function"
    },
    {
      "inputs": [
        {
          "internalType": "uint256",
          "name": "ethPriceInCents",
          "type": "uint256"
        }
      ],
      "name": "setEthPrice",
      "outputs": [],
      "stateMutability": "nonpayable",
      "type": "function"
    },
    {
      "inputs": [
        {
          "internalType": "address",
          "name": "newOwner",
          "type": "address"
        }
      ],
      "name": "transferOwnership",
      "outputs": [],
      "stateMutability": "nonpayable",
      "type": "function"
    },
    {
      "inputs": [
        {
          "internalType": "address",
          "name": "subscriber",
          "type": "address"
        }
      ],
      "name": "unregister",
      "outputs": [],
      "stateMutability": "nonpayable",
      "type": "function"
    }
  ],
  "bytecode": "0x60806040526000600155600060025534801561001a57600080fd5b50604051611310380380611310833981810160405281019061003c91906101fd565b33600073ffffffffffffffffffffffffffffffffffffffff168173ffffffffffffffffffffffffffffffffffffffff16036100af5760006040517f1e4fbdf70000000000000000000000000000000000000000000000000000000081526004016100a6919061026b565b60405180910390fd5b6100be816100e160201b60201c565b506100ce816101a560201b60201c565b60018190555042600281905550506102e6565b60008060009054906101000a900473ffffffffffffffffffffffffffffffffffffffff169050816000806101000a81548173ffffffffffffffffffffffffffffffffffffffff021916908373ffffffffffffffffffffffffffffffffffffffff1602179055508173ffffffffffffffffffffffffffffffffffffffff168173ffffffffffffffffffffffffffffffffffffffff167f8be0079c531659141344cd1fd0a4f28419497f9722a3daafe3b4186f6b6457e060405160405180910390a35050565b600081670de0b6b3a76400006101bb91906102b5565b9050919050565b600080fd5b6000819050919050565b6101da816101c7565b81146101e557600080fd5b50565b6000815190506101f7816101d1565b92915050565b600060208284031215610213576102126101c2565b5b6000610221848285016101e8565b91505092915050565b600073ffffffffffffffffffffffffffffffffffffffff82169050919050565b60006102558261022a565b9050919050565b6102658161024a565b82525050565b6000602082019050610280600083018461025c565b92915050565b7f4e487b7100000000000000000000000000000000000000000000000000000000600052601260045260246000fd5b60006102c0826101c7565b91506102cb836101c7565b9250826102db576102da610286565b5b828204905092915050565b61101b806102f56000396000f3fe608060405234801561001057600080fd5b50600436106100875760003560e01c80635eee1f961161005b5780635eee1f96146100fe578063715018a61461011c5780638da5cb5b14610126578063f2fde38b1461014457610087565b80629f92621461008c5780632ec2c246146100a85780633a9d0302146100c45780634420e486146100e2575b600080fd5b6100a660048036038101906100a19190610b38565b610160565b005b6100c260048036038101906100bd9190610bc3565b61020d565b005b6100cc6103a1565b6040516100d99190610bff565b60405180910390f35b6100fc60048036038101906100f79190610bc3565b6103ab565b005b61010661072e565b6040516101139190610bff565b60405180910390f35b61012461073a565b005b61012e61074e565b60405161013b9190610c29565b60405180910390f35b61015e60048036038101906101599190610bc3565b610777565b005b600081116101a3576040517f08c379a000000000000000000000000000000000000000000000000000000000815260040161019a90610ca1565b60405180910390fd5b60006101ae826107fd565b9050600081116101f3576040517f08c379a00000000000000000000000000000000000000000000000000000000081526004016101ea90610d0d565b60405180910390fd5b806001819055504260028190555061020961081a565b5050565b6102156109aa565b600073ffffffffffffffffffffffffffffffffffffffff168173ffffffffffffffffffffffffffffffffffffffff1603610284576040517f08c379a000000000000000000000000000000000000000000000000000000000815260040161027b90610d79565b60405180910390fd5b60005b60038054905081101561039c578173ffffffffffffffffffffffffffffffffffffffff16600382815481106102bf576102be610d99565b5b9060005260206000200160009054906101000a900473ffffffffffffffffffffffffffffffffffffffff1673ffffffffffffffffffffffffffffffffffffffff160361038f576003818154811061031957610318610d99565b5b9060005260206000200160006101000a81549073ffffffffffffffffffffffffffffffffffffffff02191690558173ffffffffffffffffffffffffffffffffffffffff167fae563681ccc696fae58fe830f401bc9c043a43ddb9f7c2830b32c3c70d9966e760405160405180910390a25061039e565b8080600101915050610287565b505b50565b6000600154905090565b6103b36109aa565b600073ffffffffffffffffffffffffffffffffffffffff168173ffffffffffffffffffffffffffffffffffffffff1603610422576040517f08c379a000000000000000000000000000000000000000000000000000000000815260040161041990610d79565b60405180910390fd5b8073ffffffffffffffffffffffffffffffffffffffff167fa88fac53823b534c72d6958345adbe6801e072750d83b490d52ebbac51473a6360405160405180910390a260005b6003805490508110156104f9578173ffffffffffffffffffffffffffffffffffffffff16600382815481106104a05761049f610d99565b5b9060005260206000200160009054906101000a900473ffffffffffffffffffffffffffffffffffffffff1673ffffffffffffffffffffffffffffffffffffffff16036104ec575061072b565b8080600101915050610468565b5060005b60038054905081101561065957600073ffffffffffffffffffffffffffffffffffffffff166003828154811061053657610535610d99565b5b9060005260206000200160009054906101000a900473ffffffffffffffffffffffffffffffffffffffff1673ffffffffffffffffffffffffffffffffffffffff160361064c57816003828154811061059157610590610d99565b5b9060005260206000200160006101000a81548173ffffffffffffffffffffffffffffffffffffffff021916908373ffffffffffffffffffffffffffffffffffffffff1602179055508173ffffffffffffffffffffffffffffffffffffffff16637b388e9f6001546040518263ffffffff1660e01b81526004016106149190610bff565b600060405180830381600087803b15801561062e57600080fd5b505af1158015610642573d6000803e3d6000fd5b505050505061072b565b80806001019150506104fd565b506003819080600181540180825580915050600190039060005260206000200160009091909190916101000a81548173ffffffffffffffffffffffffffffffffffffffff021916908373ffffffffffffffffffffffffffffffffffffffff1602179055508073ffffffffffffffffffffffffffffffffffffffff16637b388e9f6001546040518263ffffffff1660e01b81526004016106f89190610bff565b600060405180830381600087803b15801561071257600080fd5b505af1158015610726573d6000803e3d6000fd5b505050505b50565b670de0b6b3a764000081565b6107426109aa565b61074c6000610a31565b565b60008060009054906101000a900473ffffffffffffffffffffffffffffffffffffffff16905090565b61077f6109aa565b600073ffffffffffffffffffffffffffffffffffffffff168173ffffffffffffffffffffffffffffffffffffffff16036107f15760006040517f1e4fbdf70000000000000000000000000000000000000000000000000000000081526004016107e89190610c29565b60405180910390fd5b6107fa81610a31565b50565b600081670de0b6b3a76400006108139190610e26565b9050919050565b6000805b60038054905081101561096457600073ffffffffffffffffffffffffffffffffffffffff166003828154811061085757610856610d99565b5b9060005260206000200160009054906101000a900473ffffffffffffffffffffffffffffffffffffffff1673ffffffffffffffffffffffffffffffffffffffff161461095757600381815481106108b1576108b0610d99565b5b9060005260206000200160009054906101000a900473ffffffffffffffffffffffffffffffffffffffff1673ffffffffffffffffffffffffffffffffffffffff16637b388e9f6001546040518263ffffffff1660e01b81526004016109169190610bff565b600060405180830381600087803b15801561093057600080fd5b505af1158015610944573d6000803e3d6000fd5b50505050818061095390610e57565b9250505b808060010191505061081e565b5060008111156109a7577f16021d6e2bead68861d6649a1d5d1b41bffb1d77e2ca4461a1804bf00cb75ef9600360405161099e9190610fc3565b60405180910390a15b50565b6109b2610af5565b73ffffffffffffffffffffffffffffffffffffffff166109d061074e565b73ffffffffffffffffffffffffffffffffffffffff1614610a2f576109f3610af5565b6040517f118cdaa7000000000000000000000000000000000000000000000000000000008152600401610a269190610c29565b60405180910390fd5b565b60008060009054906101000a900473ffffffffffffffffffffffffffffffffffffffff169050816000806101000a81548173ffffffffffffffffffffffffffffffffffffffff021916908373ffffffffffffffffffffffffffffffffffffffff1602179055508173ffffffffffffffffffffffffffffffffffffffff168173ffffffffffffffffffffffffffffffffffffffff167f8be0079c531659141344cd1fd0a4f28419497f9722a3daafe3b4186f6b6457e060405160405180910390a35050565b600033905090565b600080fd5b6000819050919050565b610b1581610b02565b8114610b2057600080fd5b50565b600081359050610b3281610b0c565b92915050565b600060208284031215610b4e57610b4d610afd565b5b6000610b5c84828501610b23565b91505092915050565b600073ffffffffffffffffffffffffffffffffffffffff82169050919050565b6000610b9082610b65565b9050919050565b610ba081610b85565b8114610bab57600080fd5b50565b600081359050610bbd81610b97565b92915050565b600060208284031215610bd957610bd8610afd565b5b6000610be784828501610bae565b91505092915050565b610bf981610b02565b82525050565b6000602082019050610c146000830184610bf0565b92915050565b610c2381610b85565b82525050565b6000602082019050610c3e6000830184610c1a565b92915050565b600082825260208201905092915050565b7f4554482070726963652063616e6e6f74206265207a65726f0000000000000000600082015250565b6000610c8b601883610c44565b9150610c9682610c55565b602082019050919050565b60006020820190508181036000830152610cba81610c7e565b9050919050565b7f5765692f63656e7420726174696f2063616e6e6f74206265207a65726f000000600082015250565b6000610cf7601d83610c44565b9150610d0282610cc1565b602082019050919050565b60006020820190508181036000830152610d2681610cea565b9050919050565b7f496e76616c696420737562736372696265722061646472657373000000000000600082015250565b6000610d63601a83610c44565b9150610d6e82610d2d565b602082019050919050565b60006020820190508181036000830152610d9281610d56565b9050919050565b7f4e487b7100000000000000000000000000000000000000000000000000000000600052603260045260246000fd5b7f4e487b7100000000000000000000000000000000000000000000000000000000600052601260045260246000fd5b7f4e487b7100000000000000000000000000000000000000000000000000000000600052601160045260246000fd5b6000610e3182610b02565b9150610e3c83610b02565b925082610e4c57610e4b610dc8565b5b828204905092915050565b6000610e6282610b02565b91507fffffffffffffffffffffffffffffffffffffffffffffffffffffffffffffffff8203610e9457610e93610df7565b5b600182019050919050565b600081549050919050565b600082825260208201905092915050565b60008190508160005260206000209050919050565b610ed981610b85565b82525050565b6000610eeb8383610ed0565b60208301905092915050565b60008160001c9050919050565b600073ffffffffffffffffffffffffffffffffffffffff82169050919050565b6000610f37610f3283610ef7565b610f04565b9050919050565b6000610f4a8254610f24565b9050919050565b6000600182019050919050565b6000610f6982610e9f565b610f738185610eaa565b9350610f7e83610ebb565b8060005b83811015610fb657610f9382610f3e565b610f9d8882610edf565b9750610fa883610f51565b925050600181019050610f82565b5085935050505092915050565b60006020820190508181036000830152610fdd8184610f5e565b90509291505056fea2646970667358221220438faa0feeb316904ac761c4830a59ae21a231f79fdf18037e88ea426a2bfbe364736f6c634300081c0033",
  "linkReferences": {},
  "deployedLinkReferences": {}
}