{
  "_format": "hh-sol-artifact-1",
  "contractName": "Rebase",
  "sourceName": "contracts/Rebase.sol",
  "abi": [
    {
      "inputs": [],
      "stateMutability": "nonpayable",
      "type": "constructor"
    },
    {
      "inputs": [],
      "name": "EnforcedPause",
      "type": "error"
    },
    {
      "inputs": [],
      "name": "ExpectedPause",
      "type": "error"
    },
    {
      "inputs": [
        {
          "internalType": "address",
          "name": "owner",
          "type": "address"
        }
      ],
      "name": "OwnableInvalidOwner",
      "type": "error"
    },
    {
      "inputs": [
        {
          "internalType": "address",
          "name": "account",
          "type": "address"
        }
      ],
      "name": "OwnableUnauthorizedAccount",
      "type": "error"
    },
    {
      "anonymous": false,
      "inputs": [
        {
          "indexed": true,
          "internalType": "address",
          "name": "previousOwner",
          "type": "address"
        },
        {
          "indexed": true,
          "internalType": "address",
          "name": "newOwner",
          "type": "address"
        }
      ],
      "name": "OwnershipTransferred",
      "type": "event"
    },
    {
      "anonymous": false,
      "inputs": [
        {
          "indexed": false,
          "internalType": "address",
          "name": "account",
          "type": "address"
        }
      ],
      "name": "Paused",
      "type": "event"
    },
    {
      "anonymous": false,
      "inputs": [
        {
          "indexed": true,
          "internalType": "uint256",
          "name": "timestamp",
          "type": "uint256"
        },
        {
          "indexed": false,
          "internalType": "uint256",
          "name": "oldSupply",
          "type": "uint256"
        },
        {
          "indexed": false,
          "internalType": "uint256",
          "name": "newSupply",
          "type": "uint256"
        }
      ],
      "name": "SupplyUpdated",
      "type": "event"
    },
    {
      "anonymous": false,
      "inputs": [
        {
          "indexed": false,
          "internalType": "address",
          "name": "account",
          "type": "address"
        }
      ],
      "name": "Unpaused",
      "type": "event"
    },
    {
      "anonymous": false,
      "inputs": [
        {
          "indexed": true,
          "internalType": "uint256",
          "name": "timestamp",
          "type": "uint256"
        },
        {
          "indexed": false,
          "internalType": "uint256",
          "name": "weiCentRatio",
          "type": "uint256"
        }
      ],
      "name": "Updated",
      "type": "event"
    },
    {
      "inputs": [],
      "name": "deposit",
      "outputs": [],
      "stateMutability": "payable",
      "type": "function"
    },
    {
      "inputs": [
        {
          "internalType": "address",
          "name": "",
          "type": "address"
        }
      ],
      "name": "ethBalance",
      "outputs": [
        {
          "internalType": "uint256",
          "name": "",
          "type": "uint256"
        }
      ],
      "stateMutability": "view",
      "type": "function"
    },
    {
      "inputs": [],
      "name": "getParity",
      "outputs": [
        {
          "internalType": "uint256",
          "name": "",
          "type": "uint256"
        }
      ],
      "stateMutability": "view",
      "type": "function"
    },
    {
      "inputs": [],
      "name": "initialize",
      "outputs": [],
      "stateMutability": "payable",
      "type": "function"
    },
    {
      "inputs": [],
      "name": "lastUpdate",
      "outputs": [
        {
          "internalType": "uint256",
          "name": "",
          "type": "uint256"
        }
      ],
      "stateMutability": "view",
      "type": "function"
    },
    {
      "inputs": [],
      "name": "owner",
      "outputs": [
        {
          "internalType": "address",
          "name": "",
          "type": "address"
        }
      ],
      "stateMutability": "view",
      "type": "function"
    },
    {
      "inputs": [],
      "name": "pause",
      "outputs": [],
      "stateMutability": "nonpayable",
      "type": "function"
    },
    {
      "inputs": [],
      "name": "paused",
      "outputs": [
        {
          "internalType": "bool",
          "name": "",
          "type": "bool"
        }
      ],
      "stateMutability": "view",
      "type": "function"
    },
    {
      "inputs": [],
      "name": "renounceOwnership",
      "outputs": [],
      "stateMutability": "nonpayable",
      "type": "function"
    },
    {
      "inputs": [
        {
          "internalType": "address",
          "name": "_stablecoin",
          "type": "address"
        }
      ],
      "name": "setStablecoin",
      "outputs": [],
      "stateMutability": "nonpayable",
      "type": "function"
    },
    {
      "inputs": [
        {
          "internalType": "uint256",
          "name": "toleranceInSeconds",
          "type": "uint256"
        }
      ],
      "name": "setUpdateTolerance",
      "outputs": [],
      "stateMutability": "nonpayable",
      "type": "function"
    },
    {
      "inputs": [],
      "name": "stablecoin",
      "outputs": [
        {
          "internalType": "address",
          "name": "",
          "type": "address"
        }
      ],
      "stateMutability": "view",
      "type": "function"
    },
    {
      "inputs": [
        {
          "internalType": "address",
          "name": "newOwner",
          "type": "address"
        }
      ],
      "name": "transferOwnership",
      "outputs": [],
      "stateMutability": "nonpayable",
      "type": "function"
    },
    {
      "inputs": [],
      "name": "unpause",
      "outputs": [],
      "stateMutability": "nonpayable",
      "type": "function"
    },
    {
      "inputs": [
        {
          "internalType": "uint256",
          "name": "_weiCentRatio",
          "type": "uint256"
        }
      ],
      "name": "updtate",
      "outputs": [],
      "stateMutability": "nonpayable",
      "type": "function"
    },
    {
      "inputs": [],
      "name": "weiCentRatio",
      "outputs": [
        {
          "internalType": "uint256",
          "name": "",
          "type": "uint256"
        }
      ],
      "stateMutability": "view",
      "type": "function"
    },
    {
      "inputs": [
        {
          "internalType": "uint256",
          "name": "amountEth",
          "type": "uint256"
        }
      ],
      "name": "withdrawETH",
      "outputs": [],
      "stateMutability": "nonpayable",
      "type": "function"
    },
    {
      "inputs": [
        {
          "internalType": "uint256",
          "name": "amountUsda",
          "type": "uint256"
        }
      ],
      "name": "withdrawUSDA",
      "outputs": [],
      "stateMutability": "nonpayable",
      "type": "function"
    }
  ],
  "bytecode": "0x6080604052600060025561012c600355600060045534801561002057600080fd5b503360008060006101000a81548160ff021916908315150217905550600073ffffffffffffffffffffffffffffffffffffffff168173ffffffffffffffffffffffffffffffffffffffff16036100ae5760006040517f1e4fbdf70000000000000000000000000000000000000000000000000000000081526004016100a591906101c9565b60405180910390fd5b6100bd816100c360201b60201c565b506101e4565b60008060019054906101000a900473ffffffffffffffffffffffffffffffffffffffff16905081600060016101000a81548173ffffffffffffffffffffffffffffffffffffffff021916908373ffffffffffffffffffffffffffffffffffffffff1602179055508173ffffffffffffffffffffffffffffffffffffffff168173ffffffffffffffffffffffffffffffffffffffff167f8be0079c531659141344cd1fd0a4f28419497f9722a3daafe3b4186f6b6457e060405160405180910390a35050565b600073ffffffffffffffffffffffffffffffffffffffff82169050919050565b60006101b382610188565b9050919050565b6101c3816101a8565b82525050565b60006020820190506101de60008301846101ba565b92915050565b612075806101f36000396000f3fe6080604052600436106101095760003560e01c80638da5cb5b11610095578063d8f3790f11610064578063d8f3790f146102b9578063e088bfc0146102f6578063e9cbd8221461031f578063f14210a61461034a578063f2fde38b1461037357610109565b80638da5cb5b1461022e578063b33bf9c614610259578063c046371114610284578063d0e30db0146102af57610109565b8063614b87ad116100dc578063614b87ad146101a4578063715018a6146101cd5780637b388e9f146101e45780638129fc1c1461020d5780638456cb591461021757610109565b80633a7b5d9a1461010e5780633f4ba83a1461013757806352c089ff1461014e5780635c975abb14610179575b600080fd5b34801561011a57600080fd5b50610135600480360381019061013091906118bb565b61039c565b005b34801561014357600080fd5b5061014c6103f1565b005b34801561015a57600080fd5b50610163610403565b60405161017091906118f7565b60405180910390f35b34801561018557600080fd5b5061018e610503565b60405161019b919061192d565b60405180910390f35b3480156101b057600080fd5b506101cb60048036038101906101c691906118bb565b610519565b005b3480156101d957600080fd5b506101e2610815565b005b3480156101f057600080fd5b5061020b600480360381019061020691906118bb565b610829565b005b61021561091d565b005b34801561022357600080fd5b5061022c610b37565b005b34801561023a57600080fd5b50610243610b49565b6040516102509190611989565b60405180910390f35b34801561026557600080fd5b5061026e610b72565b60405161027b91906118f7565b60405180910390f35b34801561029057600080fd5b50610299610b78565b6040516102a691906118f7565b60405180910390f35b6102b7610b7e565b005b3480156102c557600080fd5b506102e060048036038101906102db91906119d0565b610d17565b6040516102ed91906118f7565b60405180910390f35b34801561030257600080fd5b5061031d600480360381019061031891906119d0565b610d2f565b005b34801561032b57600080fd5b50610334610dea565b6040516103419190611989565b60405180910390f35b34801561035657600080fd5b50610371600480360381019061036c91906118bb565b610e10565b005b34801561037f57600080fd5b5061039a600480360381019061039591906119d0565b61110c565b005b6103a4611192565b600081116103e7576040517f08c379a00000000000000000000000000000000000000000000000000000000081526004016103de90611a80565b60405180910390fd5b8060038190555050565b6103f9611192565b610401611219565b565b60008060045411610449576040517f08c379a000000000000000000000000000000000000000000000000000000000815260040161044090611b12565b60405180910390fd5b600454476104579190611b90565b6064600160009054906101000a900473ffffffffffffffffffffffffffffffffffffffff1673ffffffffffffffffffffffffffffffffffffffff166318160ddd6040518163ffffffff1660e01b8152600401602060405180830381865afa1580156104c6573d6000803e3d6000fd5b505050506040513d601f19601f820116820180604052508101906104ea9190611bd6565b6104f49190611c03565b6104fe9190611b90565b905090565b60008060009054906101000a900460ff16905090565b61052161127b565b6003544261052f9190611c45565b6002541015610573576040517f08c379a000000000000000000000000000000000000000000000000000000000815260040161056a90611cc5565b60405180910390fd5b80600160009054906101000a900473ffffffffffffffffffffffffffffffffffffffff1673ffffffffffffffffffffffffffffffffffffffff166370a08231336040518263ffffffff1660e01b81526004016105cf9190611989565b602060405180830381865afa1580156105ec573d6000803e3d6000fd5b505050506040513d601f19601f820116820180604052508101906106109190611bd6565b1015610651576040517f08c379a000000000000000000000000000000000000000000000000000000000815260040161064890611d31565b60405180910390fd5b6000816004546106619190611c03565b905080600560003373ffffffffffffffffffffffffffffffffffffffff1673ffffffffffffffffffffffffffffffffffffffff1681526020019081526020016000205410156106e5576040517f08c379a00000000000000000000000000000000000000000000000000000000081526004016106dc90611d9d565b60405180910390fd5b80600560003373ffffffffffffffffffffffffffffffffffffffff1673ffffffffffffffffffffffffffffffffffffffff16815260200190815260200160002060008282546107349190611c45565b92505081905550600160009054906101000a900473ffffffffffffffffffffffffffffffffffffffff1673ffffffffffffffffffffffffffffffffffffffff16639dc29fac33846040518363ffffffff1660e01b8152600401610798929190611dbd565b600060405180830381600087803b1580156107b257600080fd5b505af11580156107c6573d6000803e3d6000fd5b505050503373ffffffffffffffffffffffffffffffffffffffff166108fc829081150290604051600060405180830381858888f19350505050158015610810573d6000803e3d6000fd5b505050565b61081d611192565b61082760006112bc565b565b806004819055506000600160009054906101000a900473ffffffffffffffffffffffffffffffffffffffff1673ffffffffffffffffffffffffffffffffffffffff166318160ddd6040518163ffffffff1660e01b8152600401602060405180830381865afa15801561089f573d6000803e3d6000fd5b505050506040513d601f19601f820116820180604052508101906108c39190611bd6565b9050600081146108d6576108d5611381565b5b426002819055506002547fd78a0cb8bb633d06981248b816e7bd33c2a35a6089241d099fa519e361cab90260045460405161091191906118f7565b60405180910390a25050565b610925611192565b60006004541161096a576040517f08c379a000000000000000000000000000000000000000000000000000000000815260040161096190611b12565b60405180910390fd5b6004543410156109af576040517f08c379a00000000000000000000000000000000000000000000000000000000081526004016109a690611e58565b60405180910390fd5b600073ffffffffffffffffffffffffffffffffffffffff16600160009054906101000a900473ffffffffffffffffffffffffffffffffffffffff1673ffffffffffffffffffffffffffffffffffffffff1603610a40576040517f08c379a0000000000000000000000000000000000000000000000000000000008152600401610a3790611ec4565b60405180910390fd5b34600560003373ffffffffffffffffffffffffffffffffffffffff1673ffffffffffffffffffffffffffffffffffffffff16815260200190815260200160002081905550600060045434610a949190611b90565b9050600160009054906101000a900473ffffffffffffffffffffffffffffffffffffffff1673ffffffffffffffffffffffffffffffffffffffff166340c10f1933836040518363ffffffff1660e01b8152600401610af3929190611dbd565b600060405180830381600087803b158015610b0d57600080fd5b505af1158015610b21573d6000803e3d6000fd5b50505050610b2d611381565b4260028190555050565b610b3f611192565b610b47611472565b565b60008060019054906101000a900473ffffffffffffffffffffffffffffffffffffffff16905090565b60045481565b60025481565b610b8661127b565b60035442610b949190611c45565b6002541015610bd8576040517f08c379a0000000000000000000000000000000000000000000000000000000008152600401610bcf90611cc5565b60405180910390fd5b600454341015610c1d576040517f08c379a0000000000000000000000000000000000000000000000000000000008152600401610c1490611f30565b60405180910390fd5b34600560003373ffffffffffffffffffffffffffffffffffffffff1673ffffffffffffffffffffffffffffffffffffffff1681526020019081526020016000206000828254610c6c9190611f50565b92505081905550600060045434610c839190611b90565b9050600160009054906101000a900473ffffffffffffffffffffffffffffffffffffffff1673ffffffffffffffffffffffffffffffffffffffff166340c10f1933836040518363ffffffff1660e01b8152600401610ce2929190611dbd565b600060405180830381600087803b158015610cfc57600080fd5b505af1158015610d10573d6000803e3d6000fd5b5050505050565b60056020528060005260406000206000915090505481565b610d37611192565b600073ffffffffffffffffffffffffffffffffffffffff168173ffffffffffffffffffffffffffffffffffffffff1603610da6576040517f08c379a0000000000000000000000000000000000000000000000000000000008152600401610d9d90611ff6565b60405180910390fd5b80600160006101000a81548173ffffffffffffffffffffffffffffffffffffffff021916908373ffffffffffffffffffffffffffffffffffffffff16021790555050565b600160009054906101000a900473ffffffffffffffffffffffffffffffffffffffff1681565b610e1861127b565b60035442610e269190611c45565b6002541015610e6a576040517f08c379a0000000000000000000000000000000000000000000000000000000008152600401610e6190611cc5565b60405180910390fd5b80600560003373ffffffffffffffffffffffffffffffffffffffff1673ffffffffffffffffffffffffffffffffffffffff168152602001908152602001600020541015610eec576040517f08c379a0000000000000000000000000000000000000000000000000000000008152600401610ee390611d9d565b60405180910390fd5b600060045482610efc9190611b90565b905080600160009054906101000a900473ffffffffffffffffffffffffffffffffffffffff1673ffffffffffffffffffffffffffffffffffffffff166370a08231336040518263ffffffff1660e01b8152600401610f5a9190611989565b602060405180830381865afa158015610f77573d6000803e3d6000fd5b505050506040513d601f19601f82011682018060405250810190610f9b9190611bd6565b1015610fdc576040517f08c379a0000000000000000000000000000000000000000000000000000000008152600401610fd390611d31565b60405180910390fd5b81600560003373ffffffffffffffffffffffffffffffffffffffff1673ffffffffffffffffffffffffffffffffffffffff168152602001908152602001600020600082825461102b9190611c45565b92505081905550600160009054906101000a900473ffffffffffffffffffffffffffffffffffffffff1673ffffffffffffffffffffffffffffffffffffffff16639dc29fac33836040518363ffffffff1660e01b815260040161108f929190611dbd565b600060405180830381600087803b1580156110a957600080fd5b505af11580156110bd573d6000803e3d6000fd5b505050503373ffffffffffffffffffffffffffffffffffffffff166108fc839081150290604051600060405180830381858888f19350505050158015611107573d6000803e3d6000fd5b505050565b611114611192565b600073ffffffffffffffffffffffffffffffffffffffff168173ffffffffffffffffffffffffffffffffffffffff16036111865760006040517f1e4fbdf700000000000000000000000000000000000000000000000000000000815260040161117d9190611989565b60405180910390fd5b61118f816112bc565b50565b61119a6114d4565b73ffffffffffffffffffffffffffffffffffffffff166111b8610b49565b73ffffffffffffffffffffffffffffffffffffffff1614611217576111db6114d4565b6040517f118cdaa700000000000000000000000000000000000000000000000000000000815260040161120e9190611989565b60405180910390fd5b565b6112216114dc565b60008060006101000a81548160ff0219169083151502179055507f5db9ee0a495bf2e6ff9c91a7834c1ba4fdd244a5e8aa4e537bd38aeae4b073aa6112646114d4565b6040516112719190611989565b60405180910390a1565b611283610503565b156112ba576040517fd93c066500000000000000000000000000000000000000000000000000000000815260040160405180910390fd5b565b60008060019054906101000a900473ffffffffffffffffffffffffffffffffffffffff16905081600060016101000a81548173ffffffffffffffffffffffffffffffffffffffff021916908373ffffffffffffffffffffffffffffffffffffffff1602179055508173ffffffffffffffffffffffffffffffffffffffff168173ffffffffffffffffffffffffffffffffffffffff167f8be0079c531659141344cd1fd0a4f28419497f9722a3daafe3b4186f6b6457e060405160405180910390a35050565b6000600160009054906101000a900473ffffffffffffffffffffffffffffffffffffffff1673ffffffffffffffffffffffffffffffffffffffff166318160ddd6040518163ffffffff1660e01b8152600401602060405180830381865afa1580156113f0573d6000803e3d6000fd5b505050506040513d601f19601f820116820180604052508101906114149190611bd6565b9050600061142061151c565b90506000811461146e57426002819055506002547f92f6bd8586464cb7b6719f990fab2a1744aefd78e7363e3e0ee60386296bed818383604051611465929190612016565b60405180910390a25b5050565b61147a61127b565b60016000806101000a81548160ff0219169083151502179055507f62e78cea01bee320cd4e420270b5ea74000d11b0c9f74754ebdbfc544b05a2586114bd6114d4565b6040516114ca9190611989565b60405180910390a1565b600033905090565b6114e4610503565b61151a576040517f8dfc202b00000000000000000000000000000000000000000000000000000000815260040160405180910390fd5b565b600080611527610403565b90506000810361154357611539611472565b600091505061187d565b606481111561169557600160009054906101000a900473ffffffffffffffffffffffffffffffffffffffff1673ffffffffffffffffffffffffffffffffffffffff16639dc29fac611592610b49565b606480856115a09190611c45565b600160009054906101000a900473ffffffffffffffffffffffffffffffffffffffff1673ffffffffffffffffffffffffffffffffffffffff166318160ddd6040518163ffffffff1660e01b8152600401602060405180830381865afa15801561160d573d6000803e3d6000fd5b505050506040513d601f19601f820116820180604052508101906116319190611bd6565b61163b9190611c03565b6116459190611b90565b6040518363ffffffff1660e01b8152600401611662929190611dbd565b600060405180830381600087803b15801561167c57600080fd5b505af1158015611690573d6000803e3d6000fd5b505050505b60648110156117e857600160009054906101000a900473ffffffffffffffffffffffffffffffffffffffff1673ffffffffffffffffffffffffffffffffffffffff166340c10f196116e4610b49565b60648460646116f39190611c45565b600160009054906101000a900473ffffffffffffffffffffffffffffffffffffffff1673ffffffffffffffffffffffffffffffffffffffff166318160ddd6040518163ffffffff1660e01b8152600401602060405180830381865afa158015611760573d6000803e3d6000fd5b505050506040513d601f19601f820116820180604052508101906117849190611bd6565b61178e9190611c03565b6117989190611b90565b6040518363ffffffff1660e01b81526004016117b5929190611dbd565b600060405180830381600087803b1580156117cf57600080fd5b505af11580156117e3573d6000803e3d6000fd5b505050505b600160009054906101000a900473ffffffffffffffffffffffffffffffffffffffff1673ffffffffffffffffffffffffffffffffffffffff166318160ddd6040518163ffffffff1660e01b8152600401602060405180830381865afa158015611855573d6000803e3d6000fd5b505050506040513d601f19601f820116820180604052508101906118799190611bd6565b9150505b90565b600080fd5b6000819050919050565b61189881611885565b81146118a357600080fd5b50565b6000813590506118b58161188f565b92915050565b6000602082840312156118d1576118d0611880565b5b60006118df848285016118a6565b91505092915050565b6118f181611885565b82525050565b600060208201905061190c60008301846118e8565b92915050565b60008115159050919050565b61192781611912565b82525050565b6000602082019050611942600083018461191e565b92915050565b600073ffffffffffffffffffffffffffffffffffffffff82169050919050565b600061197382611948565b9050919050565b61198381611968565b82525050565b600060208201905061199e600083018461197a565b92915050565b6119ad81611968565b81146119b857600080fd5b50565b6000813590506119ca816119a4565b92915050565b6000602082840312156119e6576119e5611880565b5b60006119f4848285016119bb565b91505092915050565b600082825260208201905092915050565b7f546f6c6572616e636520696e207365636f6e64732063616e6e6f74206265207a60008201527f65726f0000000000000000000000000000000000000000000000000000000000602082015250565b6000611a6a6023836119fd565b9150611a7582611a0e565b604082019050919050565b60006020820190508181036000830152611a9981611a5d565b9050919050565b7f526562617365206d7573742073756273637269626520746f20616e206f72616360008201527f6c65000000000000000000000000000000000000000000000000000000000000602082015250565b6000611afc6022836119fd565b9150611b0782611aa0565b604082019050919050565b60006020820190508181036000830152611b2b81611aef565b9050919050565b7f4e487b7100000000000000000000000000000000000000000000000000000000600052601260045260246000fd5b7f4e487b7100000000000000000000000000000000000000000000000000000000600052601160045260246000fd5b6000611b9b82611885565b9150611ba683611885565b925082611bb657611bb5611b32565b5b828204905092915050565b600081519050611bd08161188f565b92915050565b600060208284031215611bec57611beb611880565b5b6000611bfa84828501611bc1565b91505092915050565b6000611c0e82611885565b9150611c1983611885565b9250828202611c2781611885565b91508282048414831517611c3e57611c3d611b61565b5b5092915050565b6000611c5082611885565b9150611c5b83611885565b9250828203905081811115611c7357611c72611b61565b5b92915050565b7f52656261736520636f6e74726163742069732070617573656400000000000000600082015250565b6000611caf6019836119fd565b9150611cba82611c79565b602082019050919050565b60006020820190508181036000830152611cde81611ca2565b9050919050565b7f496e73756666696369656e7420555344412062616c616e636500000000000000600082015250565b6000611d1b6019836119fd565b9150611d2682611ce5565b602082019050919050565b60006020820190508181036000830152611d4a81611d0e565b9050919050565b7f496e73756666696369656e74204554482062616c616e63650000000000000000600082015250565b6000611d876018836119fd565b9150611d9282611d51565b602082019050919050565b60006020820190508181036000830152611db681611d7a565b9050919050565b6000604082019050611dd2600083018561197a565b611ddf60208301846118e8565b9392505050565b7f56616c75652063616e6e6f74206265206c657373207468616e2077656920726160008201527f74696f0000000000000000000000000000000000000000000000000000000000602082015250565b6000611e426023836119fd565b9150611e4d82611de6565b604082019050919050565b60006020820190508181036000830152611e7181611e35565b9050919050565b7f496e76616c696420737461626c65636f696e2061646472657373000000000000600082015250565b6000611eae601a836119fd565b9150611eb982611e78565b602082019050919050565b60006020820190508181036000830152611edd81611ea1565b9050919050565b7f496e73756666696369656e74206465706f736974000000000000000000000000600082015250565b6000611f1a6014836119fd565b9150611f2582611ee4565b602082019050919050565b60006020820190508181036000830152611f4981611f0d565b9050919050565b6000611f5b82611885565b9150611f6683611885565b9250828201905080821115611f7e57611f7d611b61565b5b92915050565b7f496e76616c696420737461626c65636f696e206164647265737320287a65726f60008201527f2061646472657373290000000000000000000000000000000000000000000000602082015250565b6000611fe06029836119fd565b9150611feb82611f84565b604082019050919050565b6000602082019050818103600083015261200f81611fd3565b9050919050565b600060408201905061202b60008301856118e8565b61203860208301846118e8565b939250505056fea2646970667358221220089597458756f0e6bc2f321733a6af28274f7c713f1dab49a8f3227d437ada4564736f6c634300081c0033",
  "linkReferences": {},
  "deployedLinkReferences": {}
}